:1000000072C98CC98BC98AC989C988C987C986C977
:1000100085C984C983C982C981C980C97FC97EC98C
:100020007DC97CC97BC9FFF2825491DC00000001CC
:100030002E0000000000A8025CAC000000FF80075A
:10004000FFFFFFFFFFFFFFFFFFFFFFFFFFFFFFFFC0
:10005000FFFFFFFFFFFFFFFFFFFFFFFFFFFFFFFFB0
:10006000FFFFFFFFFFFFFFFFFFFFFFFFFFFFFFFFA0
:10007000FFFFFFFFFFFFFFFFFFFFFFFFFFFFFFFF90
:10008000FFFFFFFFFFFFFFFFFFFFFFFFFFFFFFFF80
:10009000FFFFFFFFFFFFFFFFFFFFFFFFFFFFFFFF70
:1000A000FFFFFFFFFFFFFFFFFFFFFFFFFFFFFFFF60
:1000B0008007FFFFFFFFFFFFFFFFFFFFFFFFFFFFC7
:1000C000FFFFFFFFFFFFFFFFFFFFFFFFFFFFFFFF40
:1000D000FFFFFFFFFFFFFFFFFFFFFFFFFFFFFFFF30
:1000E000FFFFFFFFFFFFFFFFFFFFFFFFFFFFFFFF20
:1000F000FFFFFFFFFFFFFFFFF282546617B70DE01F
:10010000012E0000000000A8025CAC000000FFFF10
:10011000FFFFFFFFFFFFFFFFFFFFFFFFFFFFFFFFEF
:10012000FFFFFFFFFFFFFFFFFFFFFFFFFFFFFFFFDF
:10013000FFFFFFFFFFFFFFFFFFFFFFFFFFFFFFFFCF
:10014000FFFFFFFFFFFFFFFFFFFFFFFFFFFFFFFFBF
:10015000FFFFFFFFFFFFFFFFFFFFFFFFFFFFFFFFAF
:10016000FFFFFFFFFFFFFFFFFFFFFFFFFFFFFFFF9F
:10017000FFFFFFFFFFFFFFFFFFFFFFFFFFFFFFFF8F
:10018000FF8005FFFFFFFFFFFFFFFFFFFFFFFFFFF8
:10019000FFFFFFFFFFFFFFFFFFFFFFFFFFFFFFFF6F
:1001A000FFFFFFFFFFFFFFFFFFFFFFFFFFFFFFFF5F
:1001B000FFFFFFFFFFFFFFFFFFFFFFFFFFFFFFFF4F
:1001C000FFFFFFFFFFFFFFFFFFF2825409E8FF166A
:1001D000E0012E0000000000A8025CAC000000FF5F
:1001E000FFFFFFFFFFFFFFFFFFFFFFFFFFFFFFFF1F
:1001F000FFFFFFFFFFFFFFFFFFFFFFFFFFFFFFFF0F
:10020000FFFFFFFFFFFFFFFFFFFFFFFFFFFFFFFFFE
:10021000FFFFFFFFFFFFFFFFFFFFFFFFFFFFFFFFEE
:10022000FFFFFFFFFFFFFFFFFFFFFFFFFFFFFFFFDE
:10023000FFFFFFFFFFFFFFFFFFFFFFFFFFFFFFFFCE
:10024000FFFFFFFFFFFFFFFFFFFFFFFFFFFFFFFFBE
:10025000FFFF8007FFFFFFFFFFFFFFFFFFFFFFFF25
:10026000FFFFFFFFFFFFFFFFFFFFFFFFFFFFFFFF9E
:10027000FFFFFFFFFFFFFFFFFFFFFFFFFFFFFFFF8E
:10028000FFFFFFFFFFFFFFFFFFFFFFFFFFFFFFFF7E
:10029000FFFFFFFFFFFFFFFFFFFFF2825409E8FFB0
:1002A00016E0012E0000000000A8025CAC00000077
:1002B000FFFFFFFFFFFFFFFFFFFFFFFFFFFFFFFF4E
:1002C000FFFFFFFFFFFFFFFFFFFFFFFFFFFFFFFF3E
:1002D000FFFFFFFFFFFFFFFFFFFFFFFFFFFFFFFF2E
:1002E000FFFFFFFFFFFFFFFFFFFFFFFFFFFFFFFF1E
:1002F000FFFFFFFFFFFFFFFFFFFFFFFFFFFFFFFF0E
:10030000FFFFFFFFFFFFFFFFFFFFFFFFFFFFFFFFFD
:10031000FFFFFFFFFFFFFFFFFFFFFFFFFFFFFFFFED
:10032000FFFFFF8007FFFFFFFFFFFFFFFFFFFFFF54
:10033000FFFFFFFFFFFFFFFFFFFFFFFFFFFFFFFFCD
:10034000FFFFFFFFFFFFFFFFFFFFFFFFFFFFFFFFBD
:10035000FFFFFFFFFFFFFFFFFFFFFFFFFFFFFFFFAD
:10036000FFFFFFFFFFFFFFFFFFFFFFF2825409E8DF
:10037000FF16E0012E0000000000A8025CAC0000A7
:1003800000FFFFFFFFFFFFFFFFFFFFFFFFFFFFFF7C
:10039000FFFFFFFFFFFFFFFFFFFFFFFFFFFFFFFF6D
:1003A000FFFFFFFFFFFFFFFFFFFFFFFFFFFFFFFF5D
:1003B000FFFFFFFFFFFFFFFFFFFFFFFFFFFFFFFF4D
:1003C000FFFFFFFFFFFFFFFFFFFFFFFFFFFFFFFF3D
:1003D000FFFFFFFFFFFFFFFFFFFFFFFFFFFFFFFF2D
:1003E000FFFFFFFFFFFFFFFFFFFFFFFFFFFFFFFF1D
:1003F000FFFFFFFF8003FFFFFFFFFFFFFFFFFFFF88
:10040000FFFFFFFFFFFFFFFFFFFFFFFFFFFFFFFFFC
:10041000FFFFFFFFFFFFFFFFFFFFFFFFFFFFFFFFEC
:10042000FFFFFFFFFFFFFFFFFFFFFFFFFFFFFFFFDC
:10043000FFFFFFFFFFFFFFFFFFFFFFFFF2825409F7
:10044000E8FF16E0012E0000000000A8025CAC00EE
:100450000000FFFFFFFFFFFFFFFFFFFFFFFFFFFFAA
:10046000FFFFFFFFFFFFFFFFFFFFFFFFFFFFFFFF9C
:10047000FFFFFFFFFFFFFFFFFFFFFFFFFFFFFFFF8C
:10048000FFFFFFFFFFFFFFFFFFFFFFFFFFFFFFFF7C
:10049000FFFFFFFFFFFFFFFFFFFFFFFFFFFFFFFF6C
:1004A000FFFFFFFFFFFFFFFFFFFFFFFFFFFFFFFF5C
:1004B000FFFFFFFFFFFFFFFFFFFFFFFFFFFFFFFF4C
:1004C000FFFFFFFFFF8007FFFFFFFFFFFFFFFFFFB3
:1004D000FFFFFFFFFFFFFFFFFFFFFFFFFFFFFFFF2C
:1004E000FFFFFFFFFFFFFFFFFFFFFFFFFFFFFFFF1C
:1004F000FFFFFFFFFFFFFFFFFFFFFFFFFFFFFFFF0C
:10050000FFFFFFFFFFFFFFFFFFFFFFFFFFF2825430
:1005100009E8FF16E0012E0000000000A8025CAC14
:10052000000000FFFFFFFFFFFFFFFFFFFFFFFFFFD8
:10053000FFFFFFFFFFFFFFFFFFFFFFFFFFFFFFFFCB
:10054000FFFFFFFFFFFFFFFFFFFFFFFFFFFFFFFFBB
:10055000FFFFFFFFFFFFFFFFFFFFFFFFFFFFFFFFAB
:10056000FFFFFFFFFFFFFFFFFFFFFFFFFFFFFFFF9B
:10057000FFFFFFFFFFFFFFFFFFFFFFFFFFFFFFFF8B
:10058000FFFFFFFFFFFFFFFFFFFFFFFFFFFFFFFF7B
:10059000FFFFFFFFFFFF80040D88850A978AC0F0E8
:1005A000B1158D0582EFF7F1EB23A8E807FD4BDECF
:1005B000622BCDD43FD5541C580814017FF9309AD2
:1005C000628185CC3C50082E3A25DE661CAE1C129A
:1005D00063A1660A402A4A60855DE67902FFF282DD
:1005E0005490DBFF16E0012E00A0000000A8025C82
:1005F000AD400000A3C4884CAC54A42C8468C3C88C
:10060000CCA0F8C50DB99F79D356433D3813E9679F
:1006100026153452B373A934C9C3B9440766843369
:10062000FF3BFFFE3C465ED31705122B52D030989D
:100630007139988A19005841118988180058840026
:100640000211FFFFFFFFED993AC581DD46BE976EAF
:10065000E53B27181D100B05448121E60420880680
:10066000222208024067FFFFFFFFFFFFC0114A7907
:100670002389098934C6A10F304558D68881C30221
:100680000380438191640C0A596485000288C18A01
:10069000A0A140D110A7FFFFFFFFFFFFFFFA9623A5
:1006A000445DDC9FA963FF9CFFFFF30B2730FFF243
:1006B0008274E195FF28B60B412FCCED000120029A
:1006C0005CAD80000099739D37308025A8B3D92494
:1006D00056457B1EFFFFFFFFFFFFFFFFFFFFFFFFF2
:1006E000FFEAC61FF6F0FCF5CFFE737FADDBE4003A
:1006F000B4CC650CD348D1B1943075D0F63676D1F0
:10070000F97EA4319BF717D0A008F01FFFFFFF0070
:100710004D523B6E75C775883032096A4D4B508A11
:100720006571C94AC84528B7D4A5B142924925A8E0
:10073000BC5E51344F1F458C8728668B83345E1214
:10074000B03000004058078183414C06C70218189A
:100750007C08A0607418036281BF88F482981F31FE
:1007600022A6C625D46949922A6CB4594951314907
:10077000EABF492492E91B4EB9443B04041A00FF26
:10078000F28274D8B96E151E0F4D2FE4D80080A8E0
:10079000025CADC000009186A2BBA5E924CA7F49D6
:1007A0002FEA4BFFF5A2626A747343910301808CB8
:1007B0001403C91A32FFFFFFFFFFDE8232D1B89E59
:1007C00043F02B39FABFFFFFFFFFF5AC6E07AC4FCC
:1007D0004BFF000D0A5B249500EBA526A512DA9EBF
:1007E000EA46F768C3B7D24F93FFF439E7677F7FD4
:1007F0002BBCE6F3E67AFA0BDC9EFAB08FB96A2BD3
:100800000F2E64C920328D92018805E605ED1C8704
:100810008A21130600049462C625423D154FB27F1B
:10082000D3AB5EEADEB3C9130E503671CA3CC22C9C
:1008300068183040CA0C98CC10048008FA4D012288
:100840008030962940B4412D2C2964CBCB757FFF95
:10085000FFF2827401857C16AE19392C6395A100D4
:10086000A8025CAC000000FFFD4B48D522F0B84266
:10087000F5018814C0143220A51467ADFFFFFFFFF7
:10088000F6A94B12261C802C3D240C8FD7FFFFFFAE
:10089000FFF554D2AB84210031800064450D72ED28
:1008A0003FF0002E492491902A018A2061C214C889
:1008B000151DDA6F7B46EA65F56FF51A97B41DEBE7
:1008C00073D6F8AEBEB55FE6D6D8126731C4230042
:1008D0002BAD41200B0101C18468399A7883918442
:1008E000380D98088159807001880021B99C5A4BB5
:1008F000FFFFFCCD98DD13263C43CF2873E1A915FB
:10090000C8090F310D706271D4081809D8CC879AC4
:100910009C79CF57FFFFFFD4A5A541117201A360B9
:1009200008FFF28274A2BF7E1612153F2E3FD4A19B
:1009300080A8025CAC0000009A0EF278DD06FFFF92
:10094000FFFFF5E9CC8F9907EE45431E031A0C9E75
:10095000281B50AB57FFFFFFD5A328225C17108E32
:1009600000C18D0187A5421C5A9DBFF80002285086
:10097000DC6948A84B13F94B25735391BA0BF495D6
:10098000ED4B26E9A725756FD25D913B901C3CEE9F
:100990003A10CBCED62097CD9C3D6F732F660E4B71
:1009A00007650E8B4358468AB7507D1D17A966C24E
:1009B000860C76732130CB9510014D32E833F799D0
:1009C000963C70F3F0FA4A62F0C4CD1C620B913B86
:1009D000F0046607862532386286431B981A16088B
:1009E000447821C181C0910B108858BACD24A1D977
:1009F000E2EAFFF2827403158417FA0F54DE68D21C
:100A0000D480A8025CAC0000002DB2DB61F62EB2EF
:100A1000DF61F61F622761F616E9A08A66089B97D8
:100A20000E9688B8E8016B0CC11748D1345D05BB40
:100A30007FFFFFFFFF45240832DFFFFFFFFFFFF4CA
:100A40000952BA1767FE000CCA36E349CBB61AA999
:100A50009CD971BAC29DEC1A46AE36F648F1A0BCDC
:100A6000666180ED5ABA7885295910A3F5E2A93A52
:100A7000D6D0AE5CC4572E5C1448A4FA04850C1181
:100A8000D83AC2B41843607F94A5C839241184921F
:100A9000F2C2D2570F92AC2D1253A9328625CCC484
:100AA000B9A7DD3A6E25D0D2AD5DD69B8973373DAF
:100AB0004CF9E9D3712E81E5B046B5A8D6B3479974
:100AC000823772FFF2827401FF7B16A60D4CDF3D68
:100AD00085BA00A8025CAC000000F6AD1E6691ADC0
:100AE0006A8F33479961E398512E85C3E43524E139
:100AF000C882380FE1E8945D38576DEB569FFFFFD1
:100B0000FFFF72AB18A87631558CB7FFFFFFFFA926
:100B10001CA1E08AFFC001FFFFFFFFFFFFFFFFFFF7
:100B2000FFFFFFFFFFFFFFFFFFFFFFFFFFFFFFFFD5
:100B3000FFFFFFFFFFFFFFFFFFFFFFFFFFFFFFFFC5
:100B4000FFFFFFFFFFFFFFFFFFFFFFFFFF8001FF32
:100B5000FFFFFFFFFFFFFFFFFFFFFFFFFFFFFFFFA5
:100B6000FFFFFFFFFFFFFFFFFFFFFFFFFFFFFFFF95
:100B7000FFFFFFFFFFFFFFFFFFFFFFFFFFFFFFFF85
:100B8000FFFFFFFFFFFFFFFFFFFFFFFFFFFFFFFF75
:100B9000FFFFFFFFFFF28254AE297D06A0012E0069
:100BA00000000000A8025CAC000000FFFFFFFFFF98
:100BB000FFFFFFFFFFFFFFFFFFFFFFFFFFFFFFFF45
:100BC000FFFFFFFFFFFFFFFFFFFFFFFFFFFFFFFF35
:100BD000FFFFFFFFFFFFFFFFFFFFFFFFFFFFFFFF25
:100BE000FFFFFFFFFFFFFFFFFFFFFFFFFFFFFFFF15
:100BF000FFFFFFFFFFFFFFFFFFFFFFFFFFFFFFFF05
:100C0000FFFFFFFFFFFFFFFFFFFFFFFFFFFFFFFFF4
:100C1000FFFFFFFFFFFFFFFFFFFFFFFFFFFF800161
:100C2000FFFFFFFFFFFFFFFFFFFFFFFFFFFFFFFFD4
:100C3000FFFFFFFFFFFFFFFFFFFFFFFFFFFFFFFFC4
:100C4000FFFFFFFFFFFFFFFFFFFFFFFFFFFFFFFFB4
:100C5000FFFFFFFFFFFFFFFFFFFFFFFFFFFFFFFFA4
:100C6000FFFFFFFFFFFFF2825409E8FF16E0012EAD
:100C70000000000000A8025CAC000000FFFFFFFFC6
:100C8000FFFFFFFFFFFFFFFFFFFFFFFFFFFFFFFF74
:100C9000FFFFFFFFFFFFFFFFFFFFFFFFFFFFFFFF64
:100CA000FFFFFFFFFFFFFFFFFFFFFFFFFFFFFFFF54
:100CB000FFFFFFFFFFFFFFFFFFFFFFFFFFFFFFFF44
:100CC000FFFFFFFFFFFFFFFFFFFFFFFFFFFFFFFF34
:100CD000FFFFFFFFFFFFFFFFFFFFFFFFFFFFFFFF24
:100CE000FFFFFFFFFFFFFFFFFFFFFFFFFFFFFF8093
:100CF00003FFFFFFFFFFFFFFFFFFFFFFFFFFFFFF00
:100D0000FFFFFFFFFFFFFFFFFFFFFFFFFFFFFFFFF3
:100D1000FFFFFFFFFFFFFFFFFFFFFFFFFFFFFFFFE3
:100D2000FFFFFFFFFFFFFFFFFFFFFFFFFFFFFFFFD3
:100D3000FFFFFFFFFFFFFFF2825409E8FF16E0010B
:100D40002E0000000000A8025CAC000000FFFFFFC6
:100D5000FFFFFFFFFFFFFFFFFFFFFFFFFFFFFFFFA3
:100D6000FFFFFFFFFFFFFFFFFFFFFFFFFFFFFFFF93
:100D7000FFFFFFFFFFFFFFFFFFFFFFFFFFFFFFFF83
:100D8000FFFFFFFFFFFFFFFFFFFFFFFFFFFFFFFF73
:100D9000FFFFFFFFFFFFFFFFFFFFFFFFFFFFFFFF63
:100DA000FFFFFFFFFFFFFFFFFFFFFFFFFFFFFFFF53
:100DB000FFFFFFFFFFFFFFFFFFFFFFFFFFFFFFFF43
:100DC0008002FFFFFFFFFFFFFFFFFFFFFFFFFFFFAF
:100DD000FFFFFFFFFFFFFFFFFFFFFFFFFFFFFFFF23
:100DE000FFFFFFFFFFFFFFFFFFFFFFFFFFFFFFFF13
:100DF000FFFFFFFFFFFFFFFFFFFFFFFFFFFFFFFF03
:100E0000FFFFFFFFFFFFFFFFF2825409E8FF16E03C
:100E1000012E0000000000A8025CAC000000FFFFF3
:100E2000FFFFFFFFFFFFFFFFFFFFFFFFFFFFFFFFD2
:100E3000FFFFFFFFFFFFFFFFFFFFFFFFFFFFFFFFC2
:100E4000FFFFFFFFFFFFFFFFFFFFFFFFFFFFFFFFB2
:100E5000FFFFFFFFFFFFFFFFFFFFFFFFFFFFFFFFA2
:100E6000FFFFFFFFFFFFFFFFFFFFFFFFFFFFFFFF92
:100E7000FFFFFFFFFFFFFFFFFFFFFFFFFFFFFFFF82
:100E8000FFFFFFFFFFFFFFFFFFFFFFFFFFFFFFFF72
:100E9000FF8005FFFFFFFFFFFFFFFFFFFFFFFFFFDB
:100EA000FFFFFFFFFFFFFFFFFFFFFFFFFFFFFFFF52
:100EB000FFFFFFFFFFFFFFFFFFFFFFFFFFFFFFFF42
:100EC000FFFFFFFFFFFFFFFFFFFFFFFFFFFFFFFF32
:100ED000FFFFFFFFFFFFFFFFFFF2825409E8FF164D
:100EE000E0012E0000000000A8025CAC000000FF42
:100EF000FFFFFFFFFFFFFFFFFFFFFFFFFFFFFFFF02
:100F0000FFFFFFFFFFFFFFFFFFFFFFFFFFFFFFFFF1
:100F1000FFFFFFFFFFFFFFFFFFFFFFFFFFFFFFFFE1
:100F2000FFFFFFFFFFFFFFFFFFFFFFFFFFFFFFFFD1
:100F3000FFFFFFFFFFFFFFFFFFFFFFFFFFFFFFFFC1
:100F4000FFFFFFFFFFFFFFFFFFFFFFFFFFFFFFFFB1
:100F5000FFFFFFFFFFFFFFFFFFFFFFFFFFFFFFFFA1
:100F6000FFFF8007FFFFFFFFFFFFFFFFFFFFFFFF08
:100F7000FFFFFFFFFFFFFFFFFFFFFFFFFFFFFFFF81
:100F8000FFFFFFFFFFFFFFFFFFFFFFFFFFFFFFFF71
:100F9000FFFFFFFFFFFFFFFFFFFFFFFFFFFFFFFF61
:100FA000FFFFFFFFFFFFFFFFFFFFF2825409E8FF93
:100FB00016E0012E0000000000A8025CAC0000005A
:100FC000FFFFFFFFFFFFFFFFFFFFFFFFFFFFFFFF31
:100FD000FFFFFFFFFFFFFFFFFFFFFFFFFFFFFFFF21
:100FE000FFFFFFFFFFFFFFFFFFFFFFFFFFFFFFFF11
:100FF000FFFFFFFFFFFFFFFFFFFFFFFFFFFFFFFF01
:10100000FFFFFFFFFFFFFFFFFFFFFFFFFFFFFFFFF0
:10101000FFFFFFFFFFFFFFFFFFFFFFFFFFFFFFFFE0
:10102000FFFFFFFFFFFFFFFFFFFFFFFFFFFFFFFFD0
:10103000FFFFFF8007FFFFFFFFFFFFFFFFFFFFFF37
:10104000FFFFFFFFFFFFFFFFFFFFFFFFFFFFFFFFB0
:10105000FFFFFFFFFFFFFFFFFFFFFFFFFFFFFFFFA0
:10106000FFFFFFFFFFFFFFFFFFFFFFFFFFFFFFFF90
:10107000FFFFFFFFFFFFFFFFFFFFFFF2825409E8C2
:10108000FF16E0012E0000000000A8025CAC00008A
:1010900000FFFFFFFFFFFFFFFFFFFFFFFFFFFFFF5F
:1010A000FFFFFFFFFFFFFFFFFFFFFFFFFFFFFFFF50
:1010B000FFFFFFFFFFFFFFFFFFFFFFFFFFFFFFFF40
:1010C000FFFFFFFFFFFFFFFFFFFFFFFFFFFFFFFF30
:1010D000FFFFFFFFFFFFFFFFFFFFFFFFFFFFFFFF20
:1010E000FFFFFFFFFFFFFFFFFFFFFFFFFFFFFFFF10
:1010F000FFFFFFFFFFFFFFFFFFFFFFFFFFFFFFFF00
:10110000FFFFFFFF8005FFFFFFFFFFFFFFFFFFFF68
:10111000FFFFFFFFFFFFFFFFFFFFFFFFFFFFFFFFDF
:10112000FFFFFFFFFFFFFFFFFFFFFFFFFFFFFFFFCF
:10113000FFFFFFFFFFFFFFFFFFFFFFFFFFFFFFFFBF
:10114000FFFFFFFFFFFFFFFFFFFFFFFFF2825409DA
:10115000E8FF16E0012E0000000000A8025CAC00D1
:101160000000FFFFFFFFFFFFFFFFFFFFFFFFFFFF8D
:10117000FFFFFFFFFFFFFFFFFFFFFFFFFFFFFFFF7F
:10118000FFFFFFFFFFFFFFFFFFFFFFFFFFFFFFFF6F
:10119000FFFFFFFFFFFFFFFFFFFFFFFFFFFFFFFF5F
:1011A000FFFFFFFFFFFFFFFFFFFFFFFFFFFFFFFF4F
:1011B000FFFFFFFFFFFFFFFFFFFFFFFFFFFFFFFF3F
:1011C000FFFFFFFFFFFFFFFFFFFFFFFFFFFFFFFF2F
:1011D000FFFFFFFFFF800200000000000000000092
:1011E00000000000000000000000000000000000FF
:1011F00000000000000000000000000000000000EF
:1012000000000000000000000000000000000000DE
:10121000000000000000000000000000FFF2825407
:1012200009E8FF16E0012E0000000000A8025CACF7
:1012300000000000000000000000000000000000AE
:10124000000000000000000000000000000000009E
:10125000000000000000000000000000000000008E
:10126000000000000000000000000000000000007E
:10127000000000000000000000000000000000006E
:10128000000000000000000000000000000000005E
:10129000000000000000000000000000000000004E
:1012A000000000000000000000000000000000003E
:1012B000000000000000000000000000000000002E
:1012C000000000000000000000000000000000001E
:1012D000000000000000000000000000000000000E
:1012E00000000000000011241FBECFE5D4E0DEBFE7
:1012F000CDBF10E0A0E6B0E0ECE5F4E102C005905F
:101300000D92A036B107D9F710E0A0E6B0E001C019
:101310001D92A036B107E1F777D09FC071C68CE26D
:1013200087BB81E58DB97098089583E58DB9709874
:10133000089580E58DB9709A089508958FB9779BC7
:10134000FECF8FB199270895982FAA9AA99882E085
:101350008FB9779BFECF8FB19FB9779BFECF8FB1AF
:10136000872F99278FB9779BFECF8FB16FB9779B66
:10137000FECF8FB1A99A0895982FAA9AA99883E0D1
:101380008FB9779BFECF8FB19FB9779BFECF8FB17F
:101390008FEF8FB9779BFECF9FB18FEF8FB9779B80
:1013A000FECF2FB1892F9927982F8827A99A820FCE
:1013B000911D0895AA988FB9779BFECF8FB1AA9AF5
:1013C000A99A089584B3866184BB87B3876087BB7D
:1013D000A99AAA9AAC9A83E58DB9709860E078E0F2
:1013E00080E0B2DF80E0C8DF60E078E083E0ACDF7F
:1013F00083E0C2DF60E270E28BE0A6DF8BE0BCDF5F
:1014000080E58DB9709A0895EF92FF921F93CF9364
:10141000DF938CE287BB81E58DB97098D3DFEE2432
:10142000FF249B9B14C0E701CA5DDF4F10E0FE0163
:101430008491C0DF1F5F21961032C9F780E290E0EF
:10144000E80EF91E9FEBE91692E1F90641F3E0EC94
:0C145000EE16E2E1FE0628F3E2CFFFCF2B
:00000001FF
