:1000000012C02CC02BC02AC029C028C027C026C0BF
:1000100025C024C023C022C021C020C01FC01EC0D4
:100020001DC01CC01BC011241FBECFE5D4E0DEBF25
:10003000CDBF10E0A0E6B0E0E2EEF0E002C0059037
:100040000D92A036B107D9F710E0A0E6B0E001C0EC
:100050001D92A036B107E1F72CD042C0D1CF9C0150
:10006000E0EDF7E003C0CF010197F1F721503040F8
:100070008FEF2F3F3807B9F70895839903C081E0C8
:1000800090E00895849903C082E090E008958599F6
:1000900003C083E090E00895869903C084E090E077
:1000A0000895869903C085E090E0089580E090E08F
:1000B000089581B3876081BB81B3877081BB909ABB
:1000C000919A929A84EF91E0CADF909891989298D1
:1000D00084EF91E0C4DFD1DF882389F382BBEFCFC7
:0200E000FFCF50
:00000001FF
