:1000000012C02CC02BC02AC029C028C027C026C0BF
:1000100025C024C023C022C021C020C01FC01EC0D4
:100020001DC01CC01BC011241FBECFE5D4E0DEBF25
:10003000CDBF10E0A0E6B0E0EAE4FFE102C0059029
:100040000D92A836B107D9F711E0A8E6B0E001C0DB
:100050001D92AD3DB107E1F705D376CFD1CF83999E
:1000600003C081E090E00895849903C082E090E0AD
:100070000895859903C083E090E00895869903C0B0
:1000800084E090E00895879903C085E090E00895AA
:1000900080E090E00895EF92FF920F931F93CF932B
:1000A000DF93EC0130C0BE01882777FD8095982F43
:1000B000C4DBD7FF05C020E030E040E857E4EAD9D0
:1000C00020E030E04AEF54E40CDA7B018C0120E0C0
:1000D00030E040E85FE380DB88231CF481E090E0BF
:1000E00010C020E03FEF4FE757E4C801B70112DB33
:1000F00018161CF480E090E004C0C801B70152D883
:10010000CB010197F1F721978FEFCF3FD80759F631
:10011000DF91CF911F910F91FF90EF900895A29AD8
:10012000AA9A08959091C801882321F09E3F38F43F
:100130009E5F03C0992319F092509093C8012091BB
:10014000C8013327922F8827820F931F84D70895E1
:10015000BF92CF92DF92EF92FF920F931F93CF93B4
:10016000DF93CDB7DEB7A0970FB6F894DEBF0FBE12
:10017000CDBF6B017C01B42E3CD325E096958795CD
:10018000779567952A95D1F78B0106C0B01AC701FC
:10019000B6016ED36B017C018B2D992780179107D7
:1001A000A8F70B2D112722273327B701A601CE016F
:1001B000019634D3882319F080E090E03EC0898115
:1001C000882319F481E090E038C0853E19F482E07C
:1001D00090E033C08C858F3019F483E090E02DC01F
:1001E000883019F484E090E028C084FF03C085E0E3
:1001F00090E023C089858D3439F48A85803569F48F
:100200008B858333A9F417C0873591F48A858134AF
:1002100051F48B85863561F40EC0893449F48B85A1
:10022000843431F408C08D3419F48B85813419F08D
:1002300086E090E002C087E090E0A0960FB6F894C8
:10024000DEBF0FBECDBFDF91CF911F910F91FF9009
:10025000EF90DF90CF90BF9008952F923F924F92F2
:100260005F926F927F928F929F92AF92BF92CF9246
:10027000DF92EF92FF920F931F93CF93DF93CDB74F
:10028000DEB7CA52D2400FB6F894DEBF0FBECDBF64
:100290005B016C017A01ADD2BDD2CE5DDD4F8883AA
:1002A000C252D2400027112798018701B601A5014B
:1002B000CE010196B3D2882309F0F0C08D899E89C2
:1002C000AA27BB278C01FF24EE248B8D9C8DAA27A7
:1002D000BB27E80EF91E0A1F1B1F2D8D3E8D4F8D6B
:1002E00058A1C95DDD4F288339834A835B83C75298
:1002F000D240C801B7012DD23B014C01AE014F5D88
:100300005F4F3BD5882309F0C9C0CD5DDD4F188212
:1003100019821A821B82C352D240AA24BB246501CF
:10032000CF5DDD4F1882C152D240442455247DD682
:10033000882309F472C051E2252E312C2C0E3D1E6B
:10034000C1018A0D9B1D7BD6CD5DDD4F88819981D2
:10035000AA81BB81C352D2408096A11DB11DCD5D43
:10036000DD4F88839983AA83BB83C352D240C95D82
:10037000DD4F288139814A815B81C752D240821783
:100380009307A407B50718F080E090E089C080E2E9
:1003900090E0A0E0B0E0A80EB91ECA1EDB1E90E0FF
:1003A000A91692E0B90690E0C90690E0D90608F4D3
:1003B0006DC0CF5DDD4FA881C152D240AF5FCF5D30
:1003C000DD4FA883C152D240C401B3016A0F711D31
:1003D000811D911DA101D1D4882309F05FC0CF5D9B
:1003E000DD4F2881C152D240CE5DDD4F3881C252EF
:1003F000D240231708F447C0C801B70139D27B01A6
:100400008C01A7D13B014C01AA24BB246501CF5D1F
:10041000DD4F1882C152D24039C021DE8823B1F1AC
:1004200041145104B9F5813019F0823039F480E07B
:1004300079DE4FEF442E4FE1542E2CC0833021F44F
:1004400011D68EEF90E02CC0843021F40BD68FEFC4
:1004500090E026C0853009F06ACF80916900992725
:10046000019663E070E004DD8093690021E030E0F4
:1004700002C0220F331F8A95E2F722BB3FEF432EC3
:100480003FE5532E07C0AA24BB2465014114510443
:1004900009F44DCF08944108510849CF81E090E01C
:1004A000C65DDD4F0FB6F894DEBF0FBECDBFDF9146
:1004B000CF911F910F91FF90EF90DF90CF90BF9061
:1004C000AF909F908F907F906F905F904F903F90F4
:1004D0002F900895EF92FF920F931F93CF93DF9386
:1004E000CDB7DEB7A0970FB6F894DEBF0FBECDBF75
:1004F0007C018B0122273327FC01408151816281DD
:100500007381CE0101968AD1882319F081E090E0B1
:1005100027C08C85803119F082E090E021C02D89C0
:100520003E8944275527A901332722278B8D9C8D8F
:10053000AA27BB27280F391F4A1F5B1FF7012083FB
:10054000318342835383211531054105510531F42F
:1005500047D1F701608371838283938380E090E0C9
:10056000A0960FB6F894DEBF0FBECDBFDF91CF913E
:100570001F910F91FF90EF900895EF92FF920F93CC
:100580001F93CF93DF93CDB7DEB729970FB6F894BB
:10059000DEBF0FBECDBF24D169837A838B839C835A
:1005A0001D8210926800EE248E010B5F1F4FF80130
:1005B000EE0DF11DF08069817A818B819C814F2D38
:1005C000C7DD882389F3813049F4EE20F1F161E041
:1005D00070E0CE0101967EDFEA942FC0853079F479
:1005E00084E08E1550F16F2D7727CE01019672DFD2
:1005F000E3940E0D111D81E0F80180831EC0873049
:10060000E1F440916800242F3327F901EE0FFF1F1A
:10061000EE0FFF1FE659FF4F89819A81AB81BC81A4
:1006200080839183A283B3832E573E4FF901F082DA
:100630004F5F40936800463440F4FE013596EE0D5E
:10064000F11D80818F5F8083AFCF29960FB6F8941C
:10065000DEBF0FBECDBFDF91CF911F910F91FF90F5
:10066000EF9008951F93CF93DF93A29AAA9A88E2FE
:100670008093C80181B3876081BB81B3877081BBE0
:1006800081E083BF82B3876082BB2FD48823E9F7E0
:100690008EEF82BBE9D1823008F0FFCF8DEF82BBB5
:1006A00003C084E690E0F7DCEED48130D1F38BEF29
:1006B00082BB63DF80916800882309F4FFCF10922A
:1006C000690081E082BB10E0A4D4C12FDD27FE01C8
:1006D000EE57FE4F40815527FE01EE0FFF1FEE0F34
:1006E000FF1FE659FF4F6081718182819381B5DDE3
:1006F00090916900923028F5882359F4992321F7C5
:100700008091680099270197C817D907E4F61F5F01
:10071000DBCF8F3F59F48091680099270197C81764
:10072000D90714F010E009C01F5F07C08E3F61F6C3
:10073000112311F41091680011508AE090E0ABDCB5
:10074000C3CF923009F682B76091680071DB192F30
:10075000BBCFEF92FF920F931F937B018C0180918F
:10076000CE018130C1F4E114F1040105110599F4C1
:100770008091D3019091D401AA27BB272091C90170
:100780003091CA014091CB015091CC01281B390B0B
:100790004A0B5B0B1EC08EEF9FEFAFEFBFEFE80E73
:1007A000F91E0A1F1B1F2091CD013327442755270F
:1007B000C801B7011EDB9B01AC018091C90190917A
:1007C000CA01A091CB01B091CC01280F391F4A1F5B
:1007D0005B1FCA01B9011F910F91FF90EF9008951F
:1007E0006091D9017091DA018091DB019091DC0177
:1007F00008958091CD0199272091CF013091D001AA
:10080000829FB001839F700D929F700D11248827E5
:10081000992708958091CD01992708958F929F92ED
:10082000AF92BF92CF92DF92EF92FF920F931F93FE
:100830004C015801690135E0AA0CBB1CCC1CDD1C25
:100840003A95D1F7CB01BA0184DF20E2E22EF12CF8
:100850008401A6019501B0D299271F910F91FF90B5
:10086000EF90DF90CF90BF90AF909F908F900895C2
:100870002F923F924F925F926F927F928F929F92B0
:10088000AF92BF92CF92DF92EF92FF920F931F939E
:10089000CF93DF93CDB7DEB724970FB6F894DEBFC2
:1008A0000FBECDBF2091CE01222309F041C03B01F4
:1008B0004C0172E0660C771C881C991C7A95D1F764
:1008C000E090CF01F090D00100271127C401B301BF
:1008D000A8019701E0DA1B012C01A090D101B09092
:1008E000D201CC24DD248091D5019091D601A09134
:1008F000D701B091D801A80EB91ECA1EDB1EC401D3
:10090000B301A8019701C7DAA20EB31EC41ED51EFB
:1009100064E0E62EF12C8E010F5F1F4FA2019101C2
:10092000C601B50149D269817A818B819C8146C01B
:10093000213029F06FEF7FEF8FEF9FEF3FC03B013A
:100940004C01660C771C881C991CE090CF01F0903C
:10095000D00100271127C401B301A80197019BDA38
:100960001B012C01A090D101B090D201CC24DD2438
:100970008091D5019091D601A091D701B091D80175
:10098000A80EB91ECA1EDB1EC401B301A80197013F
:1009900082DAA20EB31EC41ED51E42E0E42EF12C54
:1009A0008E010F5F1F4FA2019101C601B50104D254
:1009B00089819A819C01B9018827992724960FB6CD
:1009C000F894DEBF0FBECDBFDF91CF911F910F9185
:1009D000FF90EF90DF90CF90BF90AF909F908F905F
:1009E0007F906F905F904F903F902F900895AF92BF
:1009F000BF92CF92DF92EF92FF920F931F932091BD
:100A0000CE01222349F4A8EFAA2EAFEFBA2EAFEF02
:100A1000CA2EAFE0DA2E0CC0213039F4F8EFAF2E39
:100A2000FFEFBF2EC12CD12C03C0AA24BB2465012B
:100A3000E1E0EE2EF12C012D112D05C00894E11CF2
:100A4000F11C011D111D14DF6A157B058C059D0528
:100A5000A8F3C801B7011F910F91FF90EF90DF90AD
:100A6000CF90BF90AF9008953F924F925F926F9258
:100A70007F928F929F92AF92BF92CF92DF92EF922E
:100A8000FF920F931F93CF93DF93CDB7DEB7CA5575
:100A9000D0400FB6F894DEBF0FBECDBF04E0E02E0D
:100AA000F12C05ED11E026EC31E040E050E060E093
:100AB00070E080E090E080D1882309F0B4C06091BC
:100AC000D5017091D6018091D7019091D8011AE596
:100AD000E12EF12C8E010F5F1F4F20E030E040E04F
:100AE00050E06AD1882309F09EC04F845888509204
:100AF000D2014092D101EC85FD85F093D001E093C5
:100B0000CF013E843092CD012F89388D21153105DA
:100B100069F0C9018C01222733276C897D89611511
:100B2000710541F03B018824992408C00DA11EA144
:100B30002FA138A569A07AA08BA09CA08A899B8947
:100B4000B5E0880F991FBA95E1F78E0F9F1F0197A7
:100B5000BF017AD97B017093D4016093D301698975
:100B6000772788279927A901980143D95B016C0150
:100B7000C201AA27BB27002711278E0D9F1DA01F8A
:100B8000B11FA80EB91ECA1EDB1E6A187B088C088E
:100B90009D08232D332744275527C401B3017BD952
:100BA000253F9FE0390790E0490790E0590720F47E
:100BB00082E08093CE011FC0255F3F4F40405040F0
:100BC00060F481E08093CE011092D9011092DA0195
:100BD0001092DB011092DC010EC01092CE018DA5A7
:100BE0009EA5AFA5B8A98093D9019093DA01A093EF
:100BF000DB01B093DC018091D5019091D601A091E9
:100C0000D701B091D801A80EB91ECA1EDB1EA09252
:100C1000C901B092CA01C092CB01D092CC0180919F
:100C2000CE01992702C08FEF90E0C65ADF4F0FB672
:100C3000F894DEBF0FBECDBFDF91CF911F910F9112
:100C4000FF90EF90DF90CF90BF90AF909F908F90EC
:100C50007F906F905F904F903F90089583E58DB99E
:100C60007098089580E58DB9709A08958FB9779B33
:100C7000FECF8FB199270895982F8FEF8FB9779B6B
:100C8000FECF8FB1A89890649FB9779BFECF8FB1AC
:100C9000872F9927AA27BB278FB9779BFECF8FB1C4
:100CA000CB01AA27BB278FB9779BFECF8FB1BB277C
:100CB000A72F962F852F8FB9779BFECF8FB14FB976
:100CC000779BFECF8FB185E98FB9779BFECF8FB130
:100CD00020E03FEF02C02F5F39F03FB9779BFECF96
:100CE0008FB1982F8F3FB9F3A89A8FEF8FB9779B69
:100CF000FECF8FB1892F99270895A89AA09ABD9AFF
:100D0000BB9ABC98BA9A0895AB01BC0180E58DB935
:100D1000709A39E0440F551F661F771F3A95D1F737
:100D200081E1AADF882339F081E090E00895A89A54
:100D300082E090E00895A89820E030E09FEF03C0A3
:100D40002F5F3F4FA1F39FB9779BFECF8FB18E3FAF
:100D5000B9F780E090E008958FEF8FB9779BFECFD1
:100D60008FB18FEF8FB9779BFECF8FB1A89A8FEF9E
:100D70008FB9779BFECF8FB10895CF93DF93EA01B0
:100D8000C3DF882319F081E090E013C020E030E059
:100D90009FEF9FB9779BFECF8FB188832F5F3F4F27
:100DA00082E02030380711F02196F3CFD5DF80E0C4
:100DB00090E0DF91CF9108954F925F926F927F9272
:100DC0008F929F92AF92BF92CF92DF92EF92FF925B
:100DD0000F931F93CF93DF933B014C0159016A019D
:100DE0002801E7010DC080E09EEFAFEFBFEFA80E36
:100DF000B91ECA1EDB1E0894611C711C811C911C4B
:100E000090E0A91692E0B90690E0C90690E0D906F4
:100E100050F786017501C401B30176DF882309F01C
:100E200048C09FEF04C09FB9779BFECF8FB1089455
:100E3000A108B108C108D108AFEFAA16AFEFBA06F2
:100E4000AFEFCA06AFEFDA0671F719C08FEF8FB9AF
:100E5000779BFECF8FB1F20180832F5F3F4F2197A9
:100E600001F10894411C511CF2E020303F0770F35F
:100E700073DFC601B50148DF8823F1F01AC097017E
:100E8000209779F0640153010894A11CB11CC11C86
:100E9000D11CEACF8FEF8FB9779BFECF8FB12F5F39
:100EA0003F4F82E020303807A8F356DF80E090E023
:100EB0000BC081E090E008C00894A11CB11CC11CCB
:100EC000D11C20E030E0D0CFDF91CF911F910F9166
:100ED000FF90EF90DF90CF90BF90AF909F908F905A
:100EE0007F906F905F904F9008951F9306DF83E58A
:100EF0008DB9709810E090E02FEF2FB9779BFECF5F
:100F00008FB19F5F9A30C9F740E050E060E070E039
:100F100080E0B2DE1F5F19F481E090E027C08130ED
:100F200051F740E050E060E070E0A6DE11E00BC059
:100F300040E050E060E070E081E09EDE1F5F19F469
:100F400082E090E013C0882399F780E58DB9709A0C
:100F500040E050E060E070E08BE38EDE40E052E085
:100F600060E070E080E188DE80E090E01F9108950D
:100F700083E58DB97098089580E58DB9709A0895CC
:100F80008FB9779BFECF8FB199270895A99AAC9A14
:100F9000AB9AAA9AA19AA49AA398A29ABD9ABB9A2C
:100FA000BC98BA9A0895982FAA9AA99882E08FB906
:100FB000779BFECF8FB19FB9779BFECF8FB1872FE5
:100FC00099278FB9779BFECF8FB16FB9779BFECFF3
:100FD0008FB1A99A0895982FAA9AA99883E08FB9FA
:100FE000779BFECF8FB19FB9779BFECF8FB18FEFED
:100FF0008FB9779BFECF9FB18FEF8FB9779BFECFD5
:101000002FB1892F9927982F8827A99A820F911D90
:10101000089580E58DB9709A64E078E080E0C3DFE0
:1010200080E49CE90197F1F7089583B3992743E0A1
:10103000969587954A95E1F7817090700895FC0127
:10104000AA989FE181918FB9779BFECF8FB1915084
:10105000C8F7AA9A089520E52DB9709ABC018BE0D3
:10106000A2DF089520E0AA989B9BFECF90E01FB8D6
:10107000779BFECF8FB19F5F9032C9F7AA9A2F5FFF
:10108000203489F708951F93CF93DF93CDB7DEB750
:1010900022970FB6F894DEBF0FBECDBF77DFAC98B6
:1010A00080E49CE9FC013197F1F7AC9A23E52DB976
:1010B00070980197F1F710E008C060E070EE83E0EF
:1010C00072DF1B3009F462C01F5F83E084DF805051
:1010D000904E99F780E49CE90197F1F76AE070E09F
:1010E00085E061DF10E008C06EEF7EEF8BE05BDF34
:1010F0001B3009F44BC01F5F8BE06DDF8E5F9E4F8E
:1011000099F765E47CEA85E04EDF10E008C068E20C
:1011100078E28BE048DF1B3009F438C01F5F8BE0BA
:101120005ADF8852984299F710E007C060E078E0F3
:1011300080E039DF1B3051F11F5F80E04CDF8050D1
:101140009840A1F780ED97E00197F1F710E007C014
:1011500068E078E882E027DF1B30C1F01F5F82E0A3
:101160003ADF88509848A1F780E49CE9FC01319768
:10117000F1F79A8389834DDF89819A810197F1F78D
:1011800080E58DB9709A80E090E002C081E090E047
:1011900022960FB6F894DEBF0FBECDBFDF91CF9180
:1011A0001F910895EF92FF920F931F937B018C0183
:1011B00020E030E040E05FE4DED288236CF020E005
:1011C00030E040E05FE4C801B70139D19CD3605002
:1011D00070408040904803C0C801B70194D31F916C
:1011E0000F91FF90EF900895A0E0B0E0E9EFF8E0F4
:1011F00078C6FC016A019081923008F41BC1DB01C2
:101200008C91823080F0943061F4843009F012C106
:101210009181EB018981981709F40CC1E0E6F0E0B7
:1012200009C1843011F4FB0105C1823091F4923080
:1012300009F000C1EA01DF0188E00D9009928150B8
:10124000E1F78181FB0191818923E6018983F60120
:10125000F1C0923041F362807380EB018A809B8001
:10126000E480F580068117812C813D814E815F816C
:101270005301A818B908C501B7FCABC080970CF49E
:1012800057C0861497040CF4BEC03401EE24FF242A
:1012900087019181FB018181981709F4A6C09923E8
:1012A00009F49CC02E193F09400B510B57FDB0C0EB
:1012B000E60119827B826A82F601248335834683A4
:1012C0005783E6012C813D814E815F8179018A013E
:1012D000DA01C9010197A109B1098F5F9F4FAF4F93
:1012E000BF43F8F4E6016A817B81A8019701220FD0
:1012F000331F441F551F6150704079018A01DA0184
:10130000C9010197A109B1098F5F9F4FAF4FBF433B
:1013100060F3E6017B836A83F60124833583468389
:10132000578383E0D6018C9357FD39C0F60182C004
:1013300086149704B4F4C0E0D0E0DA01C9018170EA
:101340009070A070B0705695479537952795282BCB
:10135000392B4A2B5B2B2196AC16BD0671F78A0CF4
:101360009B1C681479040CF094CFC0E0D0E05401C9
:10137000A618B708D801C70181709070A070B0702E
:1013800016950795F794E794E82AF92A0A2B1B2B60
:101390002196AC16BD0671F76A0C7B1C7ACFDA0178
:1013A000C901B695A79597958795217030704070C3
:1013B0005070282B392B4A2B5B2BE6012C833D8365
:1013C0004E835F838A819B8101969B838A83F6018A
:1013D00031C0882799278A199B0950CFE21AF30A4E
:1013E000040B150BA801970161CFE60199837B825D
:1013F0006A822E0D3F1D401F511FF6012483358345
:10140000468357838ECF20E030E040E050E041CF6C
:1014100081E0E60189837B826A8250954095309510
:1014200021953F4F4F4F5F4FF6012483358346830D
:10143000578347CFCF01EEE0CDB7DEB76EC5A0E250
:10144000B0E0E4E2FAE055C569837A838B839C833C
:101450002D833E834F83588789E1E82EF12CEC0ED3
:10146000FD1EB701CE010196BDD38E010F5E1F4F49
:10147000B801CE010596B6D38A8991E089278A8B77
:10148000AE01475F5F4FB801C701AEDE89D2E6E02B
:10149000A0964BC5A0E2B0E0EFE4FAE02AC569836C
:1014A0007A838B839C832D833E834F83588799E176
:1014B000E92EF12CEC0EFD1EB701CE01019692D360
:1014C0008E010F5E1F4FB801CE0105968BD3AE0182
:1014D000475F5F4FB801C70187DE62D2E6E0A096A2
:1014E00024C5A0E2B0E0E6E7FAE0F7C469837A83B6
:1014F0008B839C832D833E834F8358878E01075EA9
:101500001F4FB801CE0101966DD3F1E1EF2EF12C02
:10151000EC0EFD1EB701CE01059664D3898D823095
:1015200078F09989923040F420E09A8D8A89981356
:1015300021E02A8BB701E9C0843051F4923061F088
:1015400020E09A8D8A89981321E02A8FB801DDC0A6
:10155000943029F4823041F760E670E0D6C08230E2
:1015600079F3923009F32D8D3E8D4F8D58A18D89E1
:101570009E89AF89B88D222433242101AA24BB245B
:101580006501EE24FF24870160E070E00DC06F5F0D
:101590007F4F6032710599F1880F991FAA1FBB1FF9
:1015A000569547953795279520FF19C0280E391E67
:1015B0004A1E5B1E662477244301281639064A0614
:1015C0005B0628F4E1E06E2E712C812C912CAE0C80
:1015D000BF1CC01ED11EA60CB71CC81CD91CEE0C0B
:1015E000FF1C001F111FB7FFD2CFE1E06E2E712C40
:1015F000812C912CE628F72808291929C8CF8B8D32
:101600009C8D2B893C89820F931F02969C878B8728
:101610001A869A8D8A89981711F081E08A87D7FEF9
:1016200017C08B859C85A0FE0CC0569447943794B8
:10163000279420E030E040E050E8222A332A442A70
:10164000552AD694C794B794A79401969C878B8704
:1016500030E0A31630E0B30630E0C30630E4D30632
:1016600018F58B859C850EC0220C331C441C551C20
:10167000019720E0A21620E0B20620E0C20620E496
:10168000D20680F4AA0CBB1CCC1CDD1C57FEECCF90
:1016900031E0632E712C812C912CA628B728C82804
:1016A000D928E2CF9C878B87D601C5018F779070B0
:1016B000A070B07080349105A105B10551F0AD86E0
:1016C000BE86CF86D88A83E08987BE01675F7F4F59
:1016D0001CC0A7FCF4CF211431044104510479F358
:1016E00080E490E0A0E0B0E0A80EB91ECA1EDB1EA8
:1016F00080E8682E8FEF782E8FEF882E8FEF982E50
:10170000A620B720C820D920DACFCB0149D1E2E109
:10171000A096FFC3A8E1B0E0EFE8FBE0EAC369836D
:101720007A838B839C832D833E834F83588781E10B
:10173000E82EF12CEC0EFD1EB701CE01019652D21F
:101740008E01075F1F4FB801CE0105964BD28989E4
:10175000823018F42FEF3FEF0AC089858230D0F332
:10176000B801C701DED2282F332727FD3095C901E4
:10177000E6E06896DAC3A8E1B0E0E0ECFBE0B9C3CC
:1017800069837A838B839C832D833E834F83588721
:1017900081E1E82EF12CEC0EFD1EB701CE01019681
:1017A00021D28E01075F1F4FB801CE0105961AD2D4
:1017B0008989823018F42FEF3FEF0AC08985823083
:1017C000D0F3B801C701ADD2282F332727FD3095BC
:1017D000C901E6E06896A9C3A8E1B0E0E1EFFBE04B
:1017E00088C369837A838B839C832D833E834F8355
:1017F000588781E1E82EF12CEC0EFD1EB701CE01D9
:101800000196F0D18E01075F1F4FB801CE010596FA
:10181000E9D18989823018F08985823018F421E075
:1018200030E007C0B801C7017CD2282F332727FD3D
:101830003095C901E6E0689678C3A8E0B0E0E2E23E
:10184000FCE05AC39B01AC0183E089831A8257FDF7
:1018500050C0211531054105510531F482E08983DD
:10186000CE0101969DD04CC0EEE1F0E0FC83EB830D
:101870008A818823C9F1203010E0310710E0410748
:1018800010E85107C9F188279927DC01821B930BC7
:10189000A40BB50B8D839E83AF83B8872D813E81CA
:1018A0004F815885203080E0380780E0480780E489
:1018B0005807B0F6EB81FC81DA01C901880F991F46
:1018C000AA1FBB1F31979C01AD01803010E091072A
:1018D00010E0A10710E4B10778F3FC83EB838D835C
:1018E0009E83AF83B887BCCF2D833E834F835887B9
:1018F000D5CF81E08A83ADCF60E070E080E09FECDF
:10190000E3E0289615C3ACE0B0E0E8E8FCE0F5C2FF
:1019100069837A838B839C83BE016B5F7F4FCE018B
:10192000019660D18D81823061F0823050F0843038
:1019300069F48E81882359F52FEF3FEF4FEF5FE772
:101940002AC020E030E040E050E025C02F813885FB
:1019500037FDF7CF2F31310564F78EE190E0821B20
:10196000930B29853A854B855C8504C05695479530
:10197000379527958A95D2F78E81882361F0509507
:101980004095309521953F4F4F4F5F4F04C020E069
:1019900030E040E050E8CA01B901E2E02C96C9C24B
:1019A0004F925F926F927F928F929F92AF92BF926F
:1019B000DF92EF92FF920F931F9320E030E040E020
:1019C00050E0FC01E480F58006811781D1808081A0
:1019D000823038F4D801C701A061AF77B0706FEFE3
:1019E000D9C0843009F46EC0823009F471C0E114AA
:1019F000F1040105110509F46BC0828193816FEF39
:101A0000823896070CF06AC062E87FEF681B790B9A
:101A10006A3171050CF080C047015801062E04C0E0
:101A2000B694A794979487940A94D2F744245524A3
:101A3000320181E090E0A0E0B0E004C0880F991F7F
:101A4000AA1FBB1F6A95D2F70197A109B109E82225
:101A5000F9220A231B23E114F1040105110529F0E1
:101A600061E0462E512C612C712C85017401E42813
:101A7000F52806291729D801C7018F779070A07023
:101A8000B07080349105A105B10509F457C0D801A3
:101A9000C701CF96A11DB11D60E070E08030E0E08D
:101AA0009E07E0E0AE07E0E4BE0710F061E070E002
:101AB00027E0B695A795979587952A95D1F7AF77A3
:101AC000B07068C080E090E0A0E0B0E06FEF62C06E
:101AD00080E090E0A0E0B0E060E05CC0803891057C
:101AE0008CF7BC0161587F4FD801C7018F77907088
:101AF000A070B07080349105A105B105A1F08FE30D
:101B000090E0A0E0B0E0E80EF91E0A1F1B1F17FDD1
:101B100028C0D801C701CCCF60E070E080E090E041
:101B2000A0E0B0E0CCCFE7FEF2CF80E490E0A0E010
:101B3000B0E0E80EF91E0A1F1B1FE9CFE7FC18C032
:101B400080E090E060E0E61660E0F60660E0060700
:101B500060E4160710F081E090E0BC01D801C701F5
:101B6000A7CF16950795F794E7946F5F7F4FD1CF76
:101B7000D801C701805C9F4FAF4FBF4F60E070E05E
:101B80008030E0E09E07E0E0AE07E0E4BE0708F446
:101B90008FCF8CCF282F392F9A2F9F77842F807843
:101BA000892B962F9795992797958F77482F492BB3
:101BB0006695852F8078862BD794DD24D7948F77F0
:101BC000582F5D29CA01B9011F910F91FF90EF9025
:101BD000DF90BF90AF909F908F907F906F905F90BD
:101BE0004F900895FC01DB01208131819281492FC2
:101BF0004F7750E0991F9927991F8381682F660FAF
:101C0000692B881F8827881FFD018183662309F0BF
:101C100049C0211531054105510509F470C082E81C
:101C20009FEFFD0193838283220F331F441F551FB3
:101C3000220F331F441F551F220F331F441F551FF0
:101C4000220F331F441F551F220F331F441F551FE0
:101C5000220F331F441F551F220F331F441F551FD0
:101C600083E08C932030F0E03F07F0E04F07F0E492
:101C70005F0790F482E89FEF220F331F441F551F28
:101C80000197203060E0360760E0460760E45607C1
:101C900098F3FD0193838283FD012483358346837A
:101CA000578308956F3F71F1862F99278F57904082
:101CB000FD019383828383E08C93220F331F441FA3
:101CC000551F220F331F441F551F220F331F441F60
:101CD000551F220F331F441F551F220F331F441F50
:101CE000551F220F331F441F551F220F331F441F40
:101CF000551F50642483358346835783089582E0BB
:101D00008C930895211531054105510519F484E09E
:101D10008C93089544FD02C01C92BECF81E08C9349
:101D2000BBCFEF92FF920F931F93CF93DF93FC01F2
:101D3000DB018081823050F09C91923038F0843009
:101D400041F49430B1F08181882381F461E070E046
:101D50004BC09430E9F18230A1F09230A1F361815F
:101D6000ED018981681791F0662381F36FEF7FEFB2
:101D70003BC0EB018981682F77278181681B71093E
:101D800033C0923059F560E070E02EC0228133817B
:101D9000ED018A819B818217930734F32817390755
:101DA0009CF0E480F58006811781FD012481358156
:101DB000468157812E153F0540075107A8F2E216CC
:101DC000F30604071507F8F6662309F0BFCFCECF58
:101DD000FB018181882309F0B9CFC8CFEB0189814C
:101DE000882309F0B3CFC2CFCB01E6E0CDB7DEB791
:101DF0009CC0629FD001739FF001829FE00DF11D96
:101E0000649FE00DF11D929FF00D839FF00D749F74
:101E1000F00D659FF00D9927729FB00DE11DF91F20
:101E2000639FB00DE11DF91FBD01CF01112408957D
:101E3000991B79E004C0991F961708F0961B881F1C
:101E40007A95C9F780950895AA1BBB1B51E107C07D
:101E5000AA1FBB1FA617B70710F0A61BB70B881F3A
:101E6000991F5A95A9F780959095BC01CD010895C9
:101E700097FB092E07260AD077FD04D0E5DF06D0B0
:101E800000201AF4709561957F4F0895F6F79095AC
:101E900081959F4F0895A1E21A2EAA1BBB1BFD013D
:101EA0000DC0AA1FBB1FEE1FFF1FA217B307E40739
:101EB000F50720F0A21BB30BE40BF50B661F771F91
:101EC000881F991F1A9469F7609570958095909571
:101ED0009B01AC01BD01CF0108952F923F924F921B
:101EE0005F926F927F928F929F92AF92BF92CF92AA
:101EF000DF92EF92FF920F931F93CF93DF93CDB7B3
:101F0000DEB7CA1BDB0B0FB6F894DEBF0FBECDBF2A
:101F100009942A88398848885F846E847D848C84FB
:101F20009B84AA84B984C884DF80EE80FD800C8104
:101F30001B81AA81B981CE0FD11D0FB6F894DEBFE7
:0A1F40000FBECDBFED010895FFCFE5
:081F4A0000000000000000008F
:00000001FF
