:1000000012C02CC02BC02AC029C028C027C026C0BF
:1000100025C024C023C022C021C020C01FC01EC0D4
:100020001DC01CC01BC011241FBECFE5D4E0DEBF25
:10003000CDBF10E0A0E6B0E0EEE0F3E002C0059036
:100040000D92A036B107D9F710E0A0E6B0E001C0EC
:100050001D92A036B107E1F752D158C1D1CF8CE241
:1000600087BB81E58DB9709808958FB9779BFECFD6
:100070008FB19927089583E58DB97098089580E52B
:100080008DB9709A08950895982FAA9AA99882E038
:100090008FB9779BFECF8FB19FB9779BFECF8FB182
:1000A000872F99278FB9779BFECF8FB16FB9779B39
:1000B000FECF8FB1A99A0895982FAA9AA99883E0A4
:1000C0008FB9779BFECF8FB19FB9779BFECF8FB152
:1000D0008FEF8FB9779BFECF9FB18FEF8FB9779B53
:1000E000FECF2FB1892F9927982F8827A99A820FA1
:1000F000911D0895AA988FB9779BFECF8FB1AA9AC8
:10010000A99A08951F9384B3866184BBA398A99A82
:10011000A99AAC98AC9A83E58DB9709810E008C0A4
:1001200060E070EC83E0B0DF1B3009F44FC01F5F6C
:1001300083E0C2DF8050904C99F76AE070E085E080
:10014000A3DF10E008C06EEF7EEF8BE09DDF1B3079
:1001500009F43CC01F5F8BE0AFDF8E5F9E4F99F7C5
:1001600065E47CEA85E090DF10E007C068E278E2B1
:100170008BE08ADF1B3051F11F5F8BE09DDF8852DF
:100180009842A1F710E007C060E278E080E07CDFF1
:100190001B30E1F01F5F80E08FDF80529840A1F7B5
:1001A00080E58DB9709A83E5A5DF8FEEA3DF8EE63B
:1001B000A1DF8EE79FDF80E09DDF80E09BDF80E0B6
:1001C00099DF80E097DF80E090E002C081E090E07E
:1001D0001F91089564E078E080E056DF08951F9352
:1001E00084B3866184BBA398A99AA99AAC98AC9A67
:1001F00083E58DB9709810E007C060E078E080E09A
:1002000043DF1B3041F11F5F80E056DF8050984094
:10021000A1F710E007C060E070EC83E035DF1B3031
:10022000D1F01F5F83E048DF8050904CA1F710E0D1
:1002300007C068E278E28BE027DF1B3061F01F5FC8
:100240008BE03ADF88529842A1F780E58DB9709A29
:1002500080E090E002C081E090E01F9108951F933C
:1002600084B3866184BBA398A99AA99AAC98AC9AE6
:1002700083E58DB9709810E007C060E278E080E017
:1002800003DF1B30C1F11F5F80E016DF8052984012
:10029000A1F710E007C060E070EC83E0F5DE1B30F2
:1002A00051F11F5F83E008DF8050904CA1F710E010
:1002B00007C068E278E28BE0E7DE1B30E1F01F5F09
:1002C0008BE0FADE88529842A1F780E58DB9709AEA
:1002D00083E510DF8FEE0EDF8EE60CDF8EE70ADFA0
:1002E00080E008DF80E006DF80E004DF80E002DFFE
:1002F00080E090E002C081E090E01F9108958CE2E0
:0E03000087BB81E58DB97098FDDEFFCFFFCF82
:00000001FF
